{
  "contractName": "TodoList",
  "abi": [
    {
      "inputs": [],
      "payable": false,
      "stateMutability": "nonpayable",
      "type": "constructor"
    },
    {
      "anonymous": false,
      "inputs": [
        {
          "indexed": false,
          "internalType": "uint256",
          "name": "id",
          "type": "uint256"
        }
      ],
      "name": "DeleteTask",
      "type": "event"
    },
    {
      "anonymous": false,
      "inputs": [
        {
          "indexed": false,
          "internalType": "uint256",
          "name": "id",
          "type": "uint256"
        }
      ],
      "name": "MarkDone",
      "type": "event"
    },
    {
      "anonymous": false,
      "inputs": [
        {
          "indexed": false,
          "internalType": "uint256",
          "name": "taskCount",
          "type": "uint256"
        },
        {
          "indexed": false,
          "internalType": "string",
          "name": "name",
          "type": "string"
        },
        {
          "indexed": false,
          "internalType": "string",
          "name": "aadhaar",
          "type": "string"
        },
        {
          "indexed": false,
          "internalType": "string",
          "name": "pan",
          "type": "string"
        },
        {
          "indexed": false,
          "internalType": "string",
          "name": "bank",
          "type": "string"
        },
        {
          "indexed": false,
          "internalType": "string",
          "name": "ifsc",
          "type": "string"
        },
        {
          "indexed": false,
          "internalType": "string",
          "name": "phone",
          "type": "string"
        },
        {
          "indexed": false,
          "internalType": "string",
          "name": "doctor",
          "type": "string"
        },
        {
          "indexed": false,
          "internalType": "string",
          "name": "city",
          "type": "string"
        },
        {
          "indexed": false,
          "internalType": "string",
          "name": "pincode",
          "type": "string"
        },
        {
          "indexed": false,
          "internalType": "uint256",
          "name": "age",
          "type": "uint256"
        },
        {
          "indexed": false,
          "internalType": "uint256",
          "name": "amount",
          "type": "uint256"
        }
      ],
      "name": "TaskAdded",
      "type": "event"
    },
    {
      "anonymous": false,
      "inputs": [
        {
          "components": [
            {
              "internalType": "uint256",
              "name": "id",
              "type": "uint256"
            },
            {
              "internalType": "string",
              "name": "name",
              "type": "string"
            },
            {
              "internalType": "string",
              "name": "aadhaar",
              "type": "string"
            },
            {
              "internalType": "string",
              "name": "pan",
              "type": "string"
            },
            {
              "internalType": "string",
              "name": "bank",
              "type": "string"
            },
            {
              "internalType": "string",
              "name": "ifsc",
              "type": "string"
            },
            {
              "internalType": "string",
              "name": "phone",
              "type": "string"
            },
            {
              "internalType": "string",
              "name": "doctor",
              "type": "string"
            },
            {
              "internalType": "string",
              "name": "city",
              "type": "string"
            },
            {
              "internalType": "string",
              "name": "pincode",
              "type": "string"
            },
            {
              "internalType": "uint256",
              "name": "age",
              "type": "uint256"
            },
            {
              "internalType": "uint256",
              "name": "amount",
              "type": "uint256"
            }
          ],
          "indexed": false,
          "internalType": "struct TodoList.Task[]",
          "name": "details",
          "type": "tuple[]"
        }
      ],
      "name": "addMultiples",
      "type": "event"
    },
    {
      "constant": true,
      "inputs": [],
      "name": "taskCount",
      "outputs": [
        {
          "internalType": "uint256",
          "name": "",
          "type": "uint256"
        }
      ],
      "payable": false,
      "stateMutability": "view",
      "type": "function"
    },
    {
      "constant": true,
      "inputs": [],
      "name": "getTaskCount",
      "outputs": [
        {
          "internalType": "uint256",
          "name": "",
          "type": "uint256"
        }
      ],
      "payable": false,
      "stateMutability": "view",
      "type": "function"
    },
    {
      "constant": false,
      "inputs": [
        {
          "internalType": "string",
          "name": "name",
          "type": "string"
        },
        {
          "internalType": "string",
          "name": "aadhaar",
          "type": "string"
        },
        {
          "internalType": "string",
          "name": "pan",
          "type": "string"
        },
        {
          "internalType": "string",
          "name": "bank",
          "type": "string"
        },
        {
          "internalType": "string",
          "name": "ifsc",
          "type": "string"
        },
        {
          "internalType": "string",
          "name": "phone",
          "type": "string"
        },
        {
          "internalType": "string",
          "name": "doctor",
          "type": "string"
        },
        {
          "internalType": "string",
          "name": "city",
          "type": "string"
        },
        {
          "internalType": "string",
          "name": "pincode",
          "type": "string"
        },
        {
          "internalType": "uint256",
          "name": "age",
          "type": "uint256"
        },
        {
          "internalType": "uint256",
          "name": "amount",
          "type": "uint256"
        }
      ],
      "name": "addTask",
      "outputs": [],
      "payable": false,
      "stateMutability": "nonpayable",
      "type": "function"
    },
    {
      "constant": false,
      "inputs": [
        {
          "internalType": "uint256",
          "name": "_id",
          "type": "uint256"
        }
      ],
      "name": "deleteTask",
      "outputs": [],
      "payable": false,
      "stateMutability": "nonpayable",
      "type": "function"
    },
    {
      "constant": false,
      "inputs": [
        {
          "internalType": "uint256",
          "name": "_id",
          "type": "uint256"
        }
      ],
      "name": "markDone",
      "outputs": [],
      "payable": false,
      "stateMutability": "nonpayable",
      "type": "function"
    },
    {
      "constant": true,
      "inputs": [
        {
          "internalType": "uint256",
          "name": "_id",
          "type": "uint256"
        }
      ],
      "name": "getTask",
      "outputs": [
        {
          "components": [
            {
              "internalType": "uint256",
              "name": "id",
              "type": "uint256"
            },
            {
              "internalType": "string",
              "name": "name",
              "type": "string"
            },
            {
              "internalType": "string",
              "name": "aadhaar",
              "type": "string"
            },
            {
              "internalType": "string",
              "name": "pan",
              "type": "string"
            },
            {
              "internalType": "string",
              "name": "bank",
              "type": "string"
            },
            {
              "internalType": "string",
              "name": "ifsc",
              "type": "string"
            },
            {
              "internalType": "string",
              "name": "phone",
              "type": "string"
            },
            {
              "internalType": "string",
              "name": "doctor",
              "type": "string"
            },
            {
              "internalType": "string",
              "name": "city",
              "type": "string"
            },
            {
              "internalType": "string",
              "name": "pincode",
              "type": "string"
            },
            {
              "internalType": "uint256",
              "name": "age",
              "type": "uint256"
            },
            {
              "internalType": "uint256",
              "name": "amount",
              "type": "uint256"
            }
          ],
          "internalType": "struct TodoList.Task",
          "name": "",
          "type": "tuple"
        }
      ],
      "payable": false,
      "stateMutability": "view",
      "type": "function"
    },
    {
      "constant": false,
      "inputs": [
        {
          "components": [
            {
              "internalType": "uint256",
              "name": "id",
              "type": "uint256"
            },
            {
              "internalType": "string",
              "name": "name",
              "type": "string"
            },
            {
              "internalType": "string",
              "name": "aadhaar",
              "type": "string"
            },
            {
              "internalType": "string",
              "name": "pan",
              "type": "string"
            },
            {
              "internalType": "string",
              "name": "bank",
              "type": "string"
            },
            {
              "internalType": "string",
              "name": "ifsc",
              "type": "string"
            },
            {
              "internalType": "string",
              "name": "phone",
              "type": "string"
            },
            {
              "internalType": "string",
              "name": "doctor",
              "type": "string"
            },
            {
              "internalType": "string",
              "name": "city",
              "type": "string"
            },
            {
              "internalType": "string",
              "name": "pincode",
              "type": "string"
            },
            {
              "internalType": "uint256",
              "name": "age",
              "type": "uint256"
            },
            {
              "internalType": "uint256",
              "name": "amount",
              "type": "uint256"
            }
          ],
          "internalType": "struct TodoList.Task[]",
          "name": "details",
          "type": "tuple[]"
        }
      ],
      "name": "addMultiple",
      "outputs": [],
      "payable": false,
      "stateMutability": "nonpayable",
      "type": "function"
    }
  ],
  "bytecode": "0x608060405234801561001057600080fd5b5060008055611871806100246000396000f3fe608060405234801561001057600080fd5b506004361061007d5760003560e01c8063b6cb58a51161005b578063b6cb58a5146100d3578063c17a340e146100e8578063e306cded146100f0578063fbfde0c9146101035761007d565b80631d65e77e146100825780634ad0e590146100ab578063560f3192146100c0575b600080fd5b610095610090366004611417565b610116565b6040516100a29190611643565b60405180910390f35b6100be6100b9366004611417565b6106ac565b005b6100be6100ce366004611417565b6106f5565b6100db6109cb565b6040516100a29190611654565b6100db6109d1565b6100be6100fe36600461125b565b6109d8565b6100be61011136600461121f565b610c19565b61011e610db9565b60018083038154811061012d57fe5b90600052602060002090600c02016040518061018001604052908160008201548152602001600182018054600181600116156101000203166002900480601f0160208091040260200160405190810160405280929190818152602001828054600181600116156101000203166002900480156101ea5780601f106101bf576101008083540402835291602001916101ea565b820191906000526020600020905b8154815290600101906020018083116101cd57829003601f168201915b5050509183525050600282810180546040805160206001841615610100026000190190931694909404601f8101839004830285018301909152808452938101939083018282801561027c5780601f106102515761010080835404028352916020019161027c565b820191906000526020600020905b81548152906001019060200180831161025f57829003601f168201915b505050918352505060038201805460408051602060026001851615610100026000190190941693909304601f81018490048402820184019092528181529382019392918301828280156103105780601f106102e557610100808354040283529160200191610310565b820191906000526020600020905b8154815290600101906020018083116102f357829003601f168201915b505050918352505060048201805460408051602060026001851615610100026000190190941693909304601f81018490048402820184019092528181529382019392918301828280156103a45780601f10610379576101008083540402835291602001916103a4565b820191906000526020600020905b81548152906001019060200180831161038757829003601f168201915b505050918352505060058201805460408051602060026001851615610100026000190190941693909304601f81018490048402820184019092528181529382019392918301828280156104385780601f1061040d57610100808354040283529160200191610438565b820191906000526020600020905b81548152906001019060200180831161041b57829003601f168201915b505050918352505060068201805460408051602060026001851615610100026000190190941693909304601f81018490048402820184019092528181529382019392918301828280156104cc5780601f106104a1576101008083540402835291602001916104cc565b820191906000526020600020905b8154815290600101906020018083116104af57829003601f168201915b505050918352505060078201805460408051602060026001851615610100026000190190941693909304601f81018490048402820184019092528181529382019392918301828280156105605780601f1061053557610100808354040283529160200191610560565b820191906000526020600020905b81548152906001019060200180831161054357829003601f168201915b505050918352505060088201805460408051602060026001851615610100026000190190941693909304601f81018490048402820184019092528181529382019392918301828280156105f45780601f106105c9576101008083540402835291602001916105f4565b820191906000526020600020905b8154815290600101906020018083116105d757829003601f168201915b505050918352505060098201805460408051602060026001851615610100026000190190941693909304601f81018490048402820184019092528181529382019392918301828280156106885780601f1061065d57610100808354040283529160200191610688565b820191906000526020600020905b81548152906001019060200180831161066b57829003601f168201915b50505050508152602001600a8201548152602001600b820154815250509050919050565b6000548111156106bb57600080fd5b7f6d14145fcb59b6bfacab92fd5100fc6b60cb75d4f6e0fe271d525bf6e2d4d1aa816040516106ea9190611654565b60405180910390a150565b600054811115610704576109c8565b60001981015b6001600054038110156108da576001816001018154811061072757fe5b90600052602060002090600c02016001828154811061074257fe5b90600052602060002090600c02016000820154816000015560018201816001019080546001816001161561010002031660029004610781929190610e1a565b50600282810180546107a6928481019291600019610100600183161502011604610e1a565b50600382018160030190805460018160011615610100020316600290046107ce929190610e1a565b50600482018160040190805460018160011615610100020316600290046107f6929190610e1a565b506005820181600501908054600181600116156101000203166002900461081e929190610e1a565b5060068201816006019080546001816001161561010002031660029004610846929190610e1a565b506007820181600701908054600181600116156101000203166002900461086e929190610e1a565b5060088201816008019080546001816001161561010002031660029004610896929190610e1a565b50600982018160090190805460018160011615610100020316600290046108be929190610e1a565b50600a8281015490820155600b9182015491015560010161070a565b5060018054806108e657fe5b600082815260208120600c600019909301928302018181559061090c6001830182610e9f565b61091a600283016000610e9f565b610928600383016000610e9f565b610936600483016000610e9f565b610944600583016000610e9f565b610952600683016000610e9f565b610960600783016000610e9f565b61096e600883016000610e9f565b61097c600983016000610e9f565b506000600a8201819055600b909101819055915580546000190190556040517f8c2dccd1e8cc953301e21aa9acd0c9c15ed4464a558ed394b00c243d523eb538906106ea908390611654565b50565b60005481565b6000545b90565b6000805460010190556109e9610db9565b50604080516101808101825260008054825260208083018f81529383018e9052606083018d9052608083018c905260a083018b905260c083018a905260e08301899052610100830188905261012083018790526101408301869052610160830185905260018054808201808355919093528351600c9093027fb10e2d527612073b26eecdfd717e6a320cf44b4afac2b0732d9fcbe2b7fa0cf681019384559451805194959194869493610ac0937fb10e2d527612073b26eecdfd717e6a320cf44b4afac2b0732d9fcbe2b7fa0cf701920190610ee3565b5060408201518051610adc916002840191602090910190610ee3565b5060608201518051610af8916003840191602090910190610ee3565b5060808201518051610b14916004840191602090910190610ee3565b5060a08201518051610b30916005840191602090910190610ee3565b5060c08201518051610b4c916006840191602090910190610ee3565b5060e08201518051610b68916007840191602090910190610ee3565b506101008201518051610b85916008840191602090910190610ee3565b506101208201518051610ba2916009840191602090910190610ee3565b5061014082015181600a015561016082015181600b01555050507fe634de86c09a0ebe3cc12f741c11016c13992305610e70e024295b28d05452206000548d8d8d8d8d8d8d8d8d8d8d604051610c039c9b9a99989796959493929190611662565b60405180910390a1505050505050505050505050565b60005b8151811015610d89576000805460019081019091558251839083908110610c3f57fe5b602090810291909101810151825460018181018086556000958652948490208351600c9093020191825582840151805193949293610c8593928501929190910190610ee3565b5060408201518051610ca1916002840191602090910190610ee3565b5060608201518051610cbd916003840191602090910190610ee3565b5060808201518051610cd9916004840191602090910190610ee3565b5060a08201518051610cf5916005840191602090910190610ee3565b5060c08201518051610d11916006840191602090910190610ee3565b5060e08201518051610d2d916007840191602090910190610ee3565b506101008201518051610d4a916008840191602090910190610ee3565b506101208201518051610d67916009840191602090910190610ee3565b50610140820151600a82015561016090910151600b9091015550600101610c1c565b507ff6a97d77e74ac170ca7785c43183214489bbef8f5ca1b2d932bf0b3db5c8d890816040516106ea9190611632565b6040518061018001604052806000815260200160608152602001606081526020016060815260200160608152602001606081526020016060815260200160608152602001606081526020016060815260200160008152602001600081525090565b828054600181600116156101000203166002900490600052602060002090601f016020900481019282601f10610e535780548555610e8f565b82800160010185558215610e8f57600052602060002091601f016020900482015b82811115610e8f578254825591600101919060010190610e74565b50610e9b929150610f51565b5090565b50805460018160011615610100020316600290046000825580601f10610ec557506109c8565b601f0160209004906000526020600020908101906109c89190610f51565b828054600181600116156101000203166002900490600052602060002090601f016020900481019282601f10610f2457805160ff1916838001178555610e8f565b82800160010185558215610e8f579182015b82811115610e8f578251825591602001919060010190610f36565b6109d591905b80821115610e9b5760008155600101610f57565b600082601f830112610f7c57600080fd5b8135610f8f610f8a8261177a565b611754565b81815260209384019390925082018360005b83811015610fcd5781358601610fb78882611026565b8452506020928301929190910190600101610fa1565b5050505092915050565b600082601f830112610fe857600080fd5b8135610ff6610f8a8261179a565b9150808252602083016020830185838301111561101257600080fd5b61101d8382846117d4565b50505092915050565b6000610180828403121561103957600080fd5b611044610180611754565b90506000611052848461120e565b82525060208201356001600160401b0381111561106e57600080fd5b61107a84828501610fd7565b60208301525060408201356001600160401b0381111561109957600080fd5b6110a584828501610fd7565b60408301525060608201356001600160401b038111156110c457600080fd5b6110d084828501610fd7565b60608301525060808201356001600160401b038111156110ef57600080fd5b6110fb84828501610fd7565b60808301525060a08201356001600160401b0381111561111a57600080fd5b61112684828501610fd7565b60a08301525060c08201356001600160401b0381111561114557600080fd5b61115184828501610fd7565b60c08301525060e08201356001600160401b0381111561117057600080fd5b61117c84828501610fd7565b60e0830152506101008201356001600160401b0381111561119c57600080fd5b6111a884828501610fd7565b610100830152506101208201356001600160401b038111156111c957600080fd5b6111d584828501610fd7565b610120830152506101406111eb8482850161120e565b610140830152506101606112018482850161120e565b6101608301525092915050565b80356112198161181a565b92915050565b60006020828403121561123157600080fd5b81356001600160401b0381111561124757600080fd5b61125384828501610f6b565b949350505050565b60008060008060008060008060008060006101608c8e03121561127d57600080fd5b8b356001600160401b0381111561129357600080fd5b61129f8e828f01610fd7565b9b505060208c01356001600160401b038111156112bb57600080fd5b6112c78e828f01610fd7565b9a505060408c01356001600160401b038111156112e357600080fd5b6112ef8e828f01610fd7565b99505060608c01356001600160401b0381111561130b57600080fd5b6113178e828f01610fd7565b98505060808c01356001600160401b0381111561133357600080fd5b61133f8e828f01610fd7565b97505060a08c01356001600160401b0381111561135b57600080fd5b6113678e828f01610fd7565b96505060c08c01356001600160401b0381111561138357600080fd5b61138f8e828f01610fd7565b95505060e08c01356001600160401b038111156113ab57600080fd5b6113b78e828f01610fd7565b9450506101008c01356001600160401b038111156113d457600080fd5b6113e08e828f01610fd7565b9350506101206113f28e828f0161120e565b9250506101406114048e828f0161120e565b9150509295989b509295989b9093969950565b60006020828403121561142957600080fd5b6000611253848461120e565b600061144183836114ee565b9392505050565b6000611453826117c7565b61145d81856117cb565b93508360208202850161146f856117c1565b8060005b858110156114a9578484038952815161148c8582611435565b9450611497836117c1565b60209a909a0199925050600101611473565b5091979650505050505050565b60006114c1826117c7565b6114cb81856117cb565b93506114db8185602086016117e0565b6114e481611810565b9093019392505050565b80516000906101808401906115038582611623565b506020830151848203602086015261151b82826114b6565b9150506040830151848203604086015261153582826114b6565b9150506060830151848203606086015261154f82826114b6565b9150506080830151848203608086015261156982826114b6565b91505060a083015184820360a086015261158382826114b6565b91505060c083015184820360c086015261159d82826114b6565b91505060e083015184820360e08601526115b782826114b6565b9150506101008301518482036101008601526115d382826114b6565b9150506101208301518482036101208601526115ef82826114b6565b915050610140830151611606610140860182611623565b5061016083015161161b610160860182611623565b509392505050565b61162c816109d5565b82525050565b602080825281016114418184611448565b6020808252810161144181846114ee565b602081016112198284611623565b6101808101611671828f611623565b8181036020830152611683818e6114b6565b90508181036040830152611697818d6114b6565b905081810360608301526116ab818c6114b6565b905081810360808301526116bf818b6114b6565b905081810360a08301526116d3818a6114b6565b905081810360c08301526116e781896114b6565b905081810360e08301526116fb81886114b6565b905081810361010083015261171081876114b6565b905081810361012083015261172581866114b6565b9050611735610140830185611623565b611743610160830184611623565b9d9c50505050505050505050505050565b6040518181016001600160401b038111828210171561177257600080fd5b604052919050565b60006001600160401b0382111561179057600080fd5b5060209081020190565b60006001600160401b038211156117b057600080fd5b506020601f91909101601f19160190565b60200190565b5190565b90815260200190565b82818337506000910152565b60005b838110156117fb5781810151838201526020016117e3565b8381111561180a576000848401525b50505050565b601f01601f191690565b611823816109d5565b81146109c857600080fdfea365627a7a723158207d0457b654253c1a4206ced8e38934610569bb3bedcd44343c20053f27cf94ac6c6578706572696d656e74616cf564736f6c63430005100040",
  "source": "// SPDX-License-Identifier: MIT\npragma solidity >=0.4.22 <0.9.0;\npragma experimental ABIEncoderV2;\n\ncontract TodoList {\n  uint public taskCount;\n  constructor() public {\n    taskCount = 0;\n  }\n\n  struct Task {\n    uint id;\n    string name;\n    string aadhaar;\n    string pan;\n    string bank;\n    string ifsc;\n//    string branch;\n//    string _address;\n    string phone;\n    string doctor;\n    string city;\n    string pincode;\n    uint age;\n    uint amount;\n  }\n  Task[] private todos;\n\n  event TaskAdded(uint taskCount, string name, string aadhaar, string pan, string bank, string ifsc, string phone, string doctor, string city, string pincode, uint age, uint amount);\n  event DeleteTask(uint id);\n  event MarkDone(uint id);\n  event addMultiples(Task[] details);\n\n  function getTaskCount() public view returns(uint) {\n    return taskCount;\n  }\n  function addTask(string memory name, string memory aadhaar, string memory pan, string memory bank, string memory ifsc, string memory phone, string memory doctor, string memory city, string memory pincode, uint age, uint amount) public {\n    ++taskCount;\n    Task memory task = Task(taskCount, name, aadhaar, pan, bank, ifsc, phone, doctor, city, pincode, age, amount);\n    todos.push(task);\n    emit TaskAdded(taskCount, name, aadhaar, pan, bank, ifsc, phone, doctor, city, pincode, age, amount);\n  }\n\n  function deleteTask(uint _id) public {\n    if(_id > taskCount) return;\n\n    for(uint i = _id - 1; i < taskCount - 1; ++i) {\n      todos[i] = todos[i + 1];\n    }\n    todos.pop();\n    taskCount -= 1;\n    emit DeleteTask(_id);\n  }\n\n  function markDone(uint _id) public {\n    require(_id <= taskCount);\n//    todos[_id - 1].completed = true;\n    emit MarkDone(_id);\n  }\n\n  function getTask(uint _id) public view returns(Task memory) {\n    return todos[_id - 1];\n  }\n\n  function addMultiple(Task[] memory details) public {\n    for(uint i = 0; i < details.length; ++i) {\n      ++taskCount;\n      todos.push(details[i]);\n    }\n    emit addMultiples(details);\n  }\n}\n",
  "sourcePath": "D:\\Flutter_Applications\\todolist_blockchain\\contracts\\TodoList.sol",
  "compiler": {
    "name": "solc",
    "version": "0.5.16+commit.9c3226ce.Emscripten.clang"
  },
  "schemaVersion": "3.4.5",
  "updatedAt": "2022-10-19T10:04:34.094Z",
  "networkType": "ethereum",
  "devdoc": {
    "methods": {}
  },
  "userdoc": {
    "methods": {}
  }
}